:100000000C94DB020C9422030C9422030C94122314
:100010000C9422030C9422030C9422030C942203CC
:100020000C9422030C9422030C9404190C94401891
:100030000C948C1F0C9422030C9422030C94220326
:100040000C9422030C9422030C9422030C9422039C
:100050000C9422030C943F1F0C9422030C94220353
:100060000C9422030C9422030C9422030C9422037C
:100070000C9422030C9422030C9422030C9422036C
:100080000C9422030C9422030C9422030C9422035C
:100090000C9422030C9422030C9422030C9422034C
:1000A0000C9422030C9422030C9422039D079D07B9
:1000B000CF07CF073108D909D909D9094D082B092C
:1000C0003C093C0959168016181880161818C816CD
:1000D000EB161818DA17ED171C1B1C1B2F1B2F1BF8
:1000E000251B2F1B2F1B2F1B1C1B1C1B2A1B2F1BF5
:1000F0002F1B2A1B050255FFFF110455FFFF240289
:1001000055FFFF300455FFFFFF000000000502D53A
:10011000FFFF1104D5FFFF2402D5FFFF3004D5FFF8
:10012000FFFF00000000050280FFFF110480FFFFB9
:10013000240280FFFF300480FFFFFF000000002644
:10014000010D01F4000000643214000101010101FD
:100150000101010102020202020202020203030380
:100160000303030303040404040404040505050550
:100170000506060606060707070707080808080910
:100180000909090A0A0A0B0B0B0C0C0C0D0D0D0EBC
:100190000E0E0F0F0F101011111112121313141451
:1001A000151516161717181819191A1A1B1B1C1DC6
:1001B0001D1E1E1F2020212222232424252626271F
:1001C0002829292A2B2C2D2D2E2F30313232333451
:1001D00035363738393A3B3C3D3E3F404142434457
:1001E00045464748494A4C4D4E4F50515354555639
:1001F00058595A5B5D5E5F616264656668696B6CE5
:100200006D6F7072737577787A7B7D7E808283855F
:1002100087888A8C8E8F91939596989A9C9EA0A29F
:10022000A3A5A7A9ABADAFB1B3B5B7BABCBEC0C2A9
:10023000C4C6C9CBCDCFD1D4D6D8DBDDDFE2E4E76D
:10024000E9EBEEF0F3F5F8FAFDFF05010980A101F5
:10025000850319012AB700150126B700950175100D
:100260008100C0050C0901A101850419012AA00221
:10027000150126A002950175108100C0050109062F
:10028000A101050719E029E7150025019508750169
:1002900081029501750881010507190029FF1500E4
:1002A00026FF0095067508810005081901290595A6
:1002B0000575019102950175039101C009023B008A
:1002C000020100A0FA090400000103010100092154
:1002D000110100012240000705810308000A0904FA
:1002E0000100010300000009211101000122320078
:1002F0000705820320000A120100020000000852D4
:100300004D01000100010200011003410076006F61
:10031000006300610064006F00000014036D006161
:10032000006B00730072006F006A0065006B0000D4
:10033000000403090429001E001F002000210022E0
:1003400000000000004C0014001A000800150017FF
:1003500000000000002E0004611664076809620AAC
:100360000000000000E1001D001B00060019000550
:100370000050010153000000000000000003510183
:10038000512C0028002D00270026002500240023E2
:1003900000000000003100130012000C0018001CC7
:1003A0000000000000340033610F640E680D620B22
:1003B0000000000000350038003700360010001142
:1003C000004F010253000000000000000000000286
:1003D000512A002B00010001000100010001000171
:1003E0000000000000010001001B080608190801B8
:1003F00000000000000100E000E200E300E1000175
:1004000000000000000100010001000100010001E6
:1004100000010001000000000000000100010001D7
:1004200000010001000100010001000100010001C4
:100430000000000000010001004D0052004A0001D0
:100440000000000000010001004F005100500001B9
:100450000000000000010001000100010001000196
:100460000001000100000000000000010001000187
:100470000001000100010001000100010001000174
:10048000000000000001001E021F022F0230023196
:10049000020000000001001E0221022F0030002592
:1004A000020000000001002402200226022702357B
:1004B0000201000100000000000000010001000135
:1004C0000001000100010001000100010001000124
:1004D0000000000000010001000100010001000116
:1004E00000000000000100E000E200E300E1000184
:1004F00000000000000100010001000100010001F6
:1005000000010001000000000000000100010001E6
:1005100000010001000100010001000100010001D3
:1005200000000000000100010001000100010001C5
:1005300000000000000100010001000100010001B5
:1005400000000000000100010001000100010001A5
:100550000001000100000000000000010001000196
:100560000001000100010001000100010001000183
:100570000000000000010001002600250024000109
:1005800000000000000100010023002200210027DC
:1005900000000000000100010020001F001E0001FB
:1005A0000001000100000000000000010001000146
:1005B00000010001000011241FBECFEFDAE0DEBF12
:1005C000CDBF04B603FE27C080915E0390915F0308
:1005D000A0916003B09161038730904BA740B04B6E
:1005E000D1F410925E0310925F0310926003109298
:1005F000610314BE84B7877F84BF0FB6F894A895B3
:1006000080916000886180936000109260000FBE4E
:10061000E0E0F8E3099511E0A0E0B1E0EAE6FAE4F1
:1006200002C005900D92AA38B107D9F723E0AAE8D5
:10063000B1E001C01D92AE35B207E1F70E949C12F5
:100640000C9433250C940000882339F090918E018E
:10065000892B80938E010C94DB190895882371F106
:100660009CEF980F913A60F4E2E1F2E092818913F5
:1006700001C01282319692E0E831F907B9F70DC056
:1006800090E2980F983058F4982F977081E001C04D
:10069000880F9A95EAF70E94FD0E0C94DB199BE5F2
:1006A000980F933020F480E090E00C94E51F885A76
:1006B000873120F480E090E00C94CF1F0895CF9311
:1006C000882309F453C09CEF980F913AF8F4C82F8F
:1006D000E4E1F2E08AE192E02191C21721F08E1765
:1006E0009F07D1F70DC0E2E1F2E08281C81301C09B
:1006F0001282319642E0E831F407B9F70E94DB1923
:100700006C2F82E192E00E94B51F13C090E2980F17
:10071000983090F4877021E030E0A90102C0440FC6
:10072000551F8A95E2F7CA0190918E01892B80931B
:100730008E01CF910C94DB19EBE5E80FE33040F428
:10074000F0E0E45CFE4F808190E0CF910C94E51FD7
:10075000885A873158F4E82FF0E0EE0FFF1FE15C74
:10076000FE4F80819181CF910C94CF1FCF9108953E
:100770001F93CF93DF93CDB7DEB767970FB6F8948B
:10078000DEBF0FBECDBF4B8B5C8B6D8B7E8B8F8B9B
:1007900061111092860286E09E01235F3F4FD901CE
:1007A000E82F1D92EA95E9F795E0FE017396D901CD
:1007B00001900D929A95E1F79C894E895F897B891A
:1007C0007D879E876F87598B488BF901DE011796CD
:1007D00001900D928A95E1F7CE0107960E94331B96
:1007E00081113EC086E0FE013796DE011196019030
:1007F0000D928A95E1F7FF81E8856A857B85611511
:10080000710531F0EF3F31F481E0FF3F19F403C08F
:1008100081E001C080E080FD23C02091520230E0E1
:10082000C9010196877099274091830250E084178F
:10083000950779F1F983EA837D836C8396E0929F33
:10084000D001939FB00D1124AD5ABD4FFE013196DA
:1008500001900D929A95E1F7809352020E94161A28
:1008600016E080918302909152028917F9F0189F47
:10087000C00111248D5A9D4F0E94331B8823B1F073
:100880008091830290E0019687709927809383027C
:10089000E8CF0E94C11D1092520210928302ECE434
:1008A000F2E086E0DF011D928A95E9F767960FB6C0
:1008B000F894DEBF0FBECDBFDF91CF911F91089599
:1008C000CF92DF92EF92FF920F931F936B017C0107
:1008D000AC0166277727411551056105710511F0B7
:1008E00080E103C0B701A60180E0052F162F272F56
:1008F0003327011511052105310519F0885FB9016C
:10090000A8018A019B01F4E0369527951795079574
:10091000FA95D1F7011511052105310519F08C5F04
:10092000B901A8018A019B01E2E036952795179548
:100930000795EA95D1F7011511052105310519F043
:100940008E5FB901A8017695679557954795452B18
:10095000462B472B09F08F5F823031F0833039F01E
:10096000813039F461E00FC061E080E00CC061E0EB
:1009700009C060E080E00E94D62160E081E00E9432
:10098000D62160E082E00E94D621C701B6011F9106
:100990000F91FF90EF90DF90CF9008958F929F92EC
:1009A000AF92BF92CF92DF92EF92FF920F931F937D
:1009B000CF93DF93CDB7DEB72A970FB6F894DEBF9B
:1009C0000FBECDBFFC01D080118183819481892B22
:1009D00039F01F3F39F491E00FEFD01203C003C08C
:1009E00091E001C090E090FDDBC57F0185E0DE0174
:1009F000169601900D928A95E1F7F70122818E817A
:100A00009F81222349F00E948C1A082F682F8E8123
:100A10009F810E94001D03C00E94D41C082FE12F5B
:100A2000F0E01AE0019FE00DF11D112463E0EE0FEC
:100A3000FF1F6A95E1F7ED0DF11DEE0FFF1FEB5C57
:100A4000FC4F05911491043F2CE5120759F190F4E5
:100A5000093D8CE51807E9F00A3D9CE51907A1F16D
:100A6000083DECE51E07B1F506E221EE41EE68ED2A
:100A70007CE514C0063FFCE51F0701F1C8F0073F05
:100A80003CE5130739F507E225EE46EE67EF7CE516
:100A900005C007E225EE45EE69ED7CE5C7010E9441
:100AA0000B20CFC406E221EE40EE64EF7CE5F6CFEA
:100AB00007E225EE44EE65EF7CE5F0CF06E221EE9D
:100AC00042EE66EF7CE5EACF08E221E045EE6AED12
:100AD0007CE5E4CFF7018281882309F445C11092B7
:100AE0004F030430FDE51F0758F40B3F2CE51207B8
:100AF00060F4C80182509C45449708F01FC105C0AE
:100B000002363DE5130709F019C10E947B0E909350
:100B1000CD018093CC0100318CE5180709F4CAC0DF
:100B200008F041C00830ECE51E0709F4A4C0F0F459
:100B300004302CE5120709F48CC068F402308CE50F
:100B4000180709F482C003301C4509F0E7C0809102
:100B5000CC018260E1C00630ECE51E0709F483C0D9
:100B600008F085C08091CC018860D6C00C302CE59F
:100B7000120709F490C068F40A308CE5180709F4EC
:100B80007EC008F084C00E94C11D8091CC018068A5
:100B9000C3C00E30ECE51E0709F481C008F086C022
:100BA0008091CC0194C00D3F2CE5120709F47BC065
:100BB00038F504318CE5180709F49AC058F402316D
:100BC000ECE51E0709F47AC008F07EC08091CC01E4
:100BD0008F7BA2C00B3F2CE51207F1F108F03FC05C
:100BE00005311C4509F09AC08091CC0182FB222777
:100BF00020F991E0922790FB82F990FB83F98CC059
:100C000001309DE5190709F467C050F48091CD01CA
:100C10000F3FFCE51F07C1F108F05BC08D7F65C089
:100C200003303DE5130709F471C008F46DC00236C6
:100C30001D4509F073C08091CC0184FB222720F967
:100C400091E0922790FB84F967C08091CC0181608C
:100C500063C08091CC0116C08091CD0116C08091F7
:100C6000CD01826042C08091CC01806155C08091ED
:100C7000CC01806251C08091CC0180644DC08091D4
:100C8000CC018860846048C0826081602EC0809101
:100C9000CC018E7F41C08091CC018D7F3DC0809181
:100CA000CC01877F39C08091CD0114C08091CC01E7
:100CB0008F7E32C08091CC018F7D2EC00E94C11DDD
:100CC0008091CC018F7728C08091CC01877F8B7F6A
:100CD00023C08D7F8E7F09C08091CD01982F909584
:100CE00091708E7F892B90FB81F98093CD0116C086
:100CF0000E94C11D8091CC0187FB222720F991E041
:100D0000922790FB87F908C061E001C060E08EE0A7
:100D100090E00E94AE2402C08093CC016091CC018F
:100D20001091CD0184E090E00E94AE24612F82E218
:100D300090E00E94AE240E94C11D83C306312CE5C1
:100D4000120761F580918E018A7A91E009F490E0B2
:100D500090938C01882311F065E301C069E282E180
:100D600092E00E94B51F17C00631FCE51F0709F08D
:100D70006CC080918C01882309F486C385E3E2E18D
:100D8000F2E028E132E09281891301C012823196AB
:100D90002E173F07C1F70E94DB1953C30B35EDE552
:100DA0001E0709F44CC058F401152CE51207C1F0D8
:100DB0000F3D1C4509F065C00E948C0E42C30C35E6
:100DC0008DE5180709F43DC00D351D4509F059C0E2
:100DD0008091CD0182FB882780F991E0892732C07C
:100DE0000E94C11DEFEFF4E30CE0E150F040004041
:100DF000E1F700C0000081E08093E00080E2809392
:100E0000D8001092C9008FE19EE40197F1F700C06D
:100E1000000087E090EBDC0180935E0390935F031A
:100E2000A0936003B09361039CE088E10FB6F8944F
:100E3000A895809360000FBE90936000FFCF81E083
:100E400001C080E00E94791D1CC080918E018272D9
:100E50000B3CECE51E0709F492C308F0E9C2063C1E
:100E60002CE5120709F477C308F010C3043C9CE595
:100E7000190709F466C308F069C3033C1C4509F46B
:100E800036C3F701828100811181882349F0C801AE
:100E90000E948C1AD82E682FC8010E94001D04C021
:100EA000C8010E94D41CD82EE12FF0E01AE0D19E98
:100EB000E00DF11D112433E0EE0FFF1F3A95E1F72D
:100EC000E00FF11DEE0FFF1FEB5CFC4F859194913D
:100ED0000E94F20C8C01982EF701D280A580A2947A
:100EE0005FE0A522809184028770B9F0DD20A9F02F
:100EF000812F807F803421F080E2800F883068F07D
:100F00008091CD0182FD09C082E00E945C1D80912C
:100F100084028770CC24C3948111C12CB12EB29469
:100F20002FE0B2228B2D90E08C30910508F041C269
:100F3000FC01EA5AFF4F0C940A25812F807F1F7015
:100F4000882311F01295107FDD20B9F0112309F4E8
:100F50001DC280E2800F883010F0911006C0809191
:100F60008E01182B10938E0105C080918602182BDC
:100F7000109386020E94DB1909C2802F0E942E0363
:100F8000112309F416C2005E083080F1992071F136
:100F90001095809186021823109386022AC0812F13
:100FA000807F1F70803211F01295107F802F992062
:100FB00021F0F1E09F16D9F149C08091CD0182FF67
:100FC0001BC0DD2069F0112339F080918E01182BB0
:100FD00010938E010E94DB1980E00E945F03E9C13B
:100FE00080E00E942E03112309F4E3C1812F0E94A7
:100FF000FD0E0E94DB19DDC1DD2081F080918F01A3
:10100000AA2051F001E0A01207C0182B181709F40C
:10101000D0C110938F01CDC1812B10C0AA2021F027
:1010200021E0A21609F4C5C10E94F70E16C0DD200A
:1010300041F035E03A1508F4BCC1812F0E94240329
:10104000B8C184E08A1508F4B4C107C0DD2019F0E6
:10105000AA2099F39BC1A1109EC1812F0E94CC1D93
:10106000A8C1812F86958695837019F0813059F03B
:10107000A0C1DD2019F0C801937002C080E090E0AB
:101080000E94E51F9CC1DD2019F0C801937002C0C9
:1010900080E090E00E94CF1F92C1812F837009F001
:1010A00069C0D1108AC1902F929596959770990F2B
:1010B000990F802F8F70882E912CA12CB12C092E86
:1010C00004C0880C991CAA1CBB1C0A94D2F704FF0C
:1010D00012C04FE050E060E070E004C0440F551FC4
:1010E000661F771F9A95D2F7DB01CA01809590950C
:1010F000A095B09503C080E090E0DC0116951695B0
:10110000412F4370423019F1C8F4009190011091C1
:1011100091012091920130919301413059F0882939
:101120009929AA29BB29BC01CD01602371238223FF
:1011300093230AC0802A912AA22AB32ABC01CD0196
:10114000682979298A299B290E94B71D36C18829D7
:101150009929AA29BB290091900110919101209110
:10116000920130919301BC01CD0160277127822744
:101170009327EACFDD2019F0812F817001C0869579
:10118000882309F41AC1902F929596959770990F1C
:10119000990F802F8F70882E912CA12CB12C092EA5
:1011A00004C0880C991CAA1CBB1C0A94D2F704FF2B
:1011B00012C04FE050E060E070E004C0440F551FE3
:1011C000661F771F9A95D2F7DB01CA01809590952B
:1011D000A095B09503C080E090E0DC0116951695CF
:1011E000412F43704230D9F068F50091C801109149
:1011F000C9012091CA013091CB01413059F08829B1
:101200009929AA29BB29BC01CD016023712382231E
:1012100093231EC0802A912AA22AB32A13C08829A8
:101220009929AA29BB290091C8011091C9012091CF
:10123000CA013091CB01BC01CD0160277127822703
:10124000932706C0BC01CD01682979298A299B29E9
:101250000E942B1DB2C01F70DD2039F0812F0E942B
:10126000961D802F0E942403A8C0802F0E94CC1DB1
:10127000812F0E94371DA1C0802F22EF921609F402
:1012800043C0291538F030EF931659F091EF9916B5
:10129000B1F177C0E3EF9E16F1F1F4EF9F1659F12B
:1012A00070C0DD2019F104E00A1508F482C01F7136
:1012B00081E090E0A0E0B0E0AC01BD0104C0440FCB
:1012C000551F661F771F1A95D2F78091C80190911C
:1012D000C901A091CA01B091CB018A019B010827E5
:1012E00019272A273B27C901B80129C025E02A155B
:1012F00008F45FC0DCCF8091CD0182FF23C0DD20E8
:1013000029F0812F8F7130C0DD20D9F3812F8F71AB
:101310000E94371D4EC0DD2079F01F7181E090E002
:10132000A0E0B0E0BC01CD0104C0660F771F881FAC
:10133000991F1A95D2F703C060E070E0CB010E94BC
:101340002B1D37C0DD2099F01F71812F0E94961D43
:101350008091CD0182FD07C038E0139FC0011124A8
:10136000836080938402812F0E94961D22C081E0B9
:101370000E945C1D81E08A15E0F482E00E945C1D01
:1013800018C0DD2029F0AA2009F4BBCF802F25CE7C
:10139000AA2009F4BBCF893349F49FEFE7EEF3E0CD
:1013A0009150E040F040E1F700C00000802F0E9423
:1013B0002E0388EF8B0D843010F40E94FB1FCC208D
:1013C000A9F08091840280FD11C0F70112828595F9
:1013D000859585950E94961DC7010E94CE04809137
:1013E00084028595859585950E94371D85E0F701D6
:1013F000DE01119601900D928A95E1F789819A811B
:101400000E94D41CEA81F0E00AE0809FE00DF11D0B
:10141000112483E0EE0FFF1F8A95E1F78981E80F21
:10142000F11DEE0FFF1FEB5CFC4F85919491B8C04E
:10143000013DFCE51F0708F04AC00F3C2CE51207F0
:10144000D0F180918402877009F4AAC0F7018281EB
:10145000882309F4A5C08091CD0182FDA1C082E05E
:101460002A960FB6F894DEBF0FBECDBFDF91CF91A5
:101470001F910F91FF90EF90DF90CF90BF90AF90B2
:101480009F908F900C945C1D89E279CC083C2CE5F0
:10149000120709F46AC008F463C0093C9CE5190707
:1014A00009F468C00A3C1C4509F0EBCC4FEE50E152
:1014B0006BEF70E16DC00D3C3CE5130709F464C0AF
:1014C00008F069C048E35EE169E47EE161C0073D80
:1014D000ECE51E0738F4023D1C4508F0B2CF0E942F
:1014E0002115AFCF0E351D4509F4ABCFCACC809185
:1014F0000D0280FF20C08E7F80930D0260910D024F
:1015000070910E0280910F02909110020E94311191
:101510000E949C20809191028160809391023FEF14
:1015200080E792E0315080409040E1F700C0000039
:101530000E94BE2086CF816080930D0261E0869577
:101540002CC049E852E162E972E122C042E952E16D
:1015500069E872E11DC04FE151E168E271E118C034
:1015600048E251E16FE171E113C047E051E163E10D
:1015700071E10EC043E151E167E071E109C04BEF59
:1015800050E16FEE70E104C049E45EE168E37EE1A2
:101590000E94962056CF61E081E00E94491251CF0F
:1015A0002A960FB6F894DEBF0FBECDBFDF91CF9164
:1015B0001F910F91FF90EF90DF90CF90BF90AF9071
:1015C0009F908F90089580E008959091CC0192FFB4
:1015D0000DC0282F2871283019F4877F846006C039
:1015E000282F2471243011F48B7F886093FF0DC065
:1015F000282F2871283119F4877E846106C0282F8E
:101600002471243111F48B7E88612091CD0120FF5B
:101610000DC0382F3871383019F4877F816006C0CB
:10162000382F3171313011F48E7F886021FF0DC069
:10163000282F2871283119F4877E816106C0282F50
:101640002171213111F48E7E886194FD877E089589
:10165000CF93DF93CDB7DEB729970FB6F894DEBFEF
:101660000FBECDBF85E0EDE0F2E0DE011196019006
:101670000D928A95E1F780918F0290919002A0914E
:101680009102B09192028E839F83A887B9872885A3
:101690004091BF015091C0016091C1017091C201A0
:1016A0003FB7F8948091570390915803A091590344
:1016B000B0915A033FBF841B950BA60BB70B843622
:1016C0009105A105B10510F4222329F18091210192
:1016D0009091220184559E4F4091200150E04A3064
:1016E000510510F049E050E0BE016F5F7F4F0E944E
:1016F0002A2583E090E00E94D923892B11F080E015
:101700000DC00E94741F6093BF017093C00180934D
:10171000C1019093C2011092910281E029960FB607
:10172000F894DEBF0FBECDBFDF91CF910895EF9249
:10173000FF921F93CF93DF9300D000D000D0CDB79E
:10174000DEB77B0180E090E00E94D923892B09F06D
:1017500065C04091050150E04115510511F041E08F
:1017600050E0609106017091070164557E4FCE01F3
:1017700006960E942A254091A4015091A5016091EE
:10178000A6017091A7012FB7F8948091570390910B
:101790005803A0915903B0915A032FBF841B950B96
:1017A000A60BB70B84369105A105B10538F48DEA77
:1017B00091E00E9430159E81891791F181E090E0BF
:1017C0000E94D923892BA1F440910F0150E04630AB
:1017D000510510F045E050E0609110017091110149
:1017E00064557E4FCE0101960E942A2511E001C06A
:1017F00010E08DEA91E00E94301591E02E812813CF
:1018000090E0192311F10E94741F6093A40170935A
:10181000A5018093A6019093A7010CC010E001C020
:1018200011E085E0EDEAF1E0DE01119601900D9204
:101830008A95E1F7112349F085E0FE013196AFE981
:10184000B1E001900D928A95E1F785E0EFE9F1E0D2
:10185000D70101900D928A95E1F7812F26960FB658
:10186000F894DEBF0FBECDBFDF91CF911F91FF90E7
:10187000EF90089580919E01811118C08091D80049
:1018800080618093D8008AE18A95F1F700C0809149
:10189000D90080FD02C082E001C081E080939E01FA
:1018A000823021F40E9484181092030281E090910A
:1018B0009E01913009F080E008950F931F930E94DC
:1018C0003A0C882321F01F910F910C94741F0E94F1
:1018D000741F0091C4011091C5012091C60130917F
:1018E000C701600F711F821F931F1F910F910895F1
:1018F000CF93DF9300D000D0CDB7DEB74091A801E1
:101900005091A9016091AA017091AB012FB7F89491
:101910008091570390915803A0915903B0915A03B5
:101920002FBF841B950BA60BB70B84369105A10521
:10193000B10580F10E945D0CDC01CB010296A11D76
:10194000B11D89839A83AB83BC83809117019091E9
:10195000180184559E4F4091160150E045305105C5
:1019600010F044E050E0BE016F5F7F4F0E942A25D7
:1019700082E090E00E94D923892B11F080E00BC017
:101980000E94741F6093A8017093A9018093AA011B
:101990009093AB0181E00F900F900F900F90DF912B
:1019A000CF910895F894E82FE295EF70F0E031A11F
:1019B000282F2F7081E090E001C0880F2A95EAF768
:1019C000982F9095932391A392A1892B82A3789429
:1019D00008950E943A0C81110C94801F0E945D0CA6
:1019E000CB010895CF93DF938238910569F1B0F46C
:1019F0008133910509F46FC048F48932910509F4E7
:101A000065C08A32910509F46BC08AC0853391059F
:101A100009F457C089339105B9F082C0833E91051E
:101A200071F138F4803E9105B1F0823E910511F1DB
:101A300077C0863E9105B9F1873E9105C9F1843E94
:101A4000910509F06DC024C02091CC0120FD53C048
:101A500021FD51C065C08091CC0180FD46C08091C0
:101A6000CD0180FF48C08091CC0184FD3FC183EE51
:101A700090E03EC18091CC0182FF3AC0F4CF8091CA
:101A8000CC0182FD35C08091CD0180FD34C0EBCF0B
:101A90008091CD0181FF35C08091CC0184FD26C1AC
:101AA00087EE90E025C18091CC0183FF27C0F4CF61
:101AB0008091CC0183FD22C08091CD0181FD21C0A8
:101AC000EBCF8091CC0185FD1FC021C08091CC015E
:101AD00085FD1DC019C08091CC0186FD1BC01DC0B5
:101AE0008091CC0186FD19C015C089E390E000C14A
:101AF00082EE90E0FDC080EE90E0FAC086EE90E0CD
:101B0000F7C084EE90E0F4C089E290E0F1C085E394
:101B100090E0EEC08AE290E0EBC081E390E0E8C0A4
:101B2000811532E5930708F069C0811541E59407F6
:101B300028F0982F8827816F906ADAC0883E910537
:101B400068F5803E910508F0D3C0883A9105B8F455
:101B5000853A910548F0855AE82FF0E0E45CFE4FA5
:101B6000808190E09064C4C08130910509F4BBC0CD
:101B700008F4BCC08430910508F4B8C0B9C08F3BEC
:101B8000910508F0B3C0885AE82FF0E0EE0FFF1F70
:101B9000E15CFE4F808191819464AAC0811520E5AB
:101BA0009207F0F09C0174E0369527957A95E1F75D
:101BB000922F9370482F437021E030E002C0220F33
:101BC000331F4A95E2F73C68392B8F70982F969512
:101BD000969540E2949FC0011124822B932B88C0DC
:101BE000811530E4930718F09F70906A81C09C01C2
:101BF0003A9521153F4108F47BC078C0EC01C1152E
:101C000086E5D807E8F5C11525E5D20748F08C2F01
:101C10000E94E50A8F7190E0982F8827906268C033
:101C2000C11534E5D30728F09C2F8827846F906A6C
:101C30005FC0AE01437055272C2F26952695C11500
:101C4000D34578F481E090E002C0880F991F4A954F
:101C5000E2F740E2249F90011124822B932B9C6891
:101C600047C081E090E002C0880F991F4A95E2F7D3
:101C700040E2249F90011124822B932B9A6838C054
:101C8000C1152AE5D207F8F4C11539E5D30790F05C
:101C90008C2F8F700E94E50A94E0D695C7959A958F
:101CA000E1F7CF70D0E0DC2FCC27D0699E01282B44
:101CB000C9011EC0C11548E5D407C0F09C2F882774
:101CC000806F906A15C0CE0190568115904270F4D5
:101CD0008D2F8F710E94E50A282F2F71CE01992731
:101CE0009062922B05C081E090E002C080E090E01D
:101CF000DF91CF910895CF9384E090E00E949A24E1
:101D0000C82F82E290E00E949A242C2F30E0A90193
:101D1000582BCA01CF91089569EE7EEF80E090E0E4
:101D20000E94CC2460E082E090E00E94AE2460E05B
:101D300083E090E00E94AE241092900110929101F5
:101D4000109292011092930160E084E090E00E9472
:101D5000AE2460E082E290E00E94AE2460E085E084
:101D600090E00E94AE2460E086E090E00E94AE2405
:101D70006FEF87E090E00E94AE2440E050E0BA01AF
:101D800088E090E00E94C02460E08DE090E00E9436
:101D9000AE2440E050E0BA0188E190E00E94C02407
:101DA00060E087E190E00E94AE2440E050E0BA019C
:101DB0008CE190E00E94C02460E070E080E290E05E
:101DC0000E94CC2440E050E0BA0188E190E00E94FB
:101DD000C02440E050E0BA018FE090E00E94C024AF
:101DE00040E050E0BA0183E190E00C94C02480917F
:101DF0008F01811110928F010895809590918E012D
:101E0000892380938E0108955F926F927F928F92C3
:101E10009F92AF92BF92CF92DF92EF92FF920F9379
:101E20001F93CF93DF93CDB7DEB72F970FB6F894FC
:101E3000DEBF0FBECDBFAE014F5F5F4F7A018AE0BC
:101E4000DA011D928A95E9F70FE611E06A0184E74D
:101E5000682E81E0782EAA24A394B12C21E8822E4A
:101E600021E0922EF80180818F3F09F440C0F89460
:101E7000E82FE295EF70F0E021A18F70A50102C07C
:101E8000440F551F8A95E2F7CA01922F982B91A310
:101E900092A18095892382A3789400C0E9E7F1E0BC
:101EA000512C31E021912F3F89F0A22FA295AF70E4
:101EB000B0E090968C9190E02F7002C09595879538
:101EC0002A95E2F780FD02C0832F01C080E0582AE6
:101ED000330F8E169F0631F7D8018C918F3F11F08A
:101EE0000E94D20CB0EABA95F1F7F60150820F5F6A
:101EF0001F4FFFEFCF1ADF0A6016710609F0B2CF4D
:101F00004AE050E0B7018EEC91E00E941D258C0163
:101F1000892B41F08AE0F701AEECB1E001900D921F
:101F20008A95E1F7F090D9010115110549F081E09A
:101F3000809396010E94801F909395018093940155
:101F4000809196018823B9F0809194019091950138
:101F50000E94651F059778F0AEECB1E0EF2DF0E040
:101F6000E352FE4F83ED91E02D9121938A179B0759
:101F7000D9F7109296010115110509F0FDC00E94D4
:101F80003A0CE091D901882309F471C07E012BE05D
:101F9000E20EF11C85E0D7011D928A95E9F70E2F1C
:101FA00010E003521E4F8091C3018A3048F447E984
:101FB0005BE0B701C8010E94F111882371F10AC0EA
:101FC00080919701909198010E94651F843F9140F4
:101FD00070F734C048E75CE0B701C8010E94F11116
:101FE0008823D9F048E25BE0B701C8010E94F111F3
:101FF000882399F01092C3018091D80190E045E0C8
:1020000050E0B70183529E4F0E941D2521E020938E
:102010009D01892BF1F400E0B1C08091C3018F3F95
:1020200019F08F5F8093C3018091C3018A3020F340
:102030000E94801F909398018093970180919D0149
:10204000882349F385E0F70111928A95E9F7109208
:102050009D01A091D801B0E0A352BE4F85E0FE01E2
:102060003B9601900D928A95E1F701E087C0F0E080
:10207000E352FE4FF89485E0ADEAB1E001900D9295
:102080008A95E1F78DEA91E00E9430158093AC01CA
:102090007894F894C090B201D090B301E090B4016C
:1020A000F090B5018091990190919A01A0919B01C6
:1020B000B0919C01C816D906EA06FB06D1F0C09281
:1020C0009901D0929A01E0929B01F0929C010E94AA
:1020D0003A0C81110EC00E94741FC61AD70AE80A72
:1020E000F90AC092C401D092C501E092C601F092F3
:1020F000C7017894F8948091BD018823D9F184FFB9
:1021000004C09091BE019093920280FF10C0809114
:10211000B60180FF0AC090910D02916090930D026C
:1021200060E086950E94491202C00E94321280919E
:10213000BD0181FF09C020E04091B9016091B80163
:102140008091B7010E94F9218091BD0182FF09C0F1
:102150008091BC01882319F00E94A32002C00E9434
:102160009C208091BD0183FF03C081E080938C029D
:102170001092BD01789402C001E010E0802F2F96EC
:102180000FB6F894DEBF0FBECDBFDF91CF911F9188
:102190000F91FF90EF90DF90CF90BF90AF909F9006
:1021A0008F907F906F905F90089580910D02282FFF
:1021B000269530E02115310519F48170826005C043
:1021C0002830310524F081708E6080930D0280915B
:1021D00010028B3518F08AE5809310020895EDE027
:1021E000F2E0438128E0421B08F440E021E06281F4
:1021F00081810C94F921EDE0F2E0438128E0420F67
:1022000008F44FEF21E0628181810C94F921EDE027
:10221000F2E0628128E0621B08F460E021E0438183
:1022200081810C94F921EDE0F2E0628128E0620FF7
:1022300008F46FEF21E0438181810C94F921EDE0F6
:10224000F2E0818121E04381628188500C94F92180
:10225000EDE0F2E0818121E043816281885F0C94AE
:10226000F921CF92DF92EF92FF926B017C010E94E5
:10227000D510B701A60188E090E0FF90EF90DF90C5
:10228000CF900C94C024EDE0F2E083E080831182D3
:102290008FEF82838AE583831482AFE8B2E01296DF
:1022A0008C911297836012968C93608171818281E8
:1022B00093810C943111AF92BF92CF92DF92EF9243
:1022C000FF920F931F93CF93DF93E82EF62EE90131
:1022D000E42FF0E0611106C0E65BFE4FE4914E2F63
:1022E0002E2F71C0062F10E0E65BFE4F4491F42FB5
:1022F000C42ED12C26E0829FC00111242FEF30E0A4
:10230000B9010E94E2245BEA5603C001579F900D79
:1023100011248E0D911D8E0D911D582F550F580FA4
:10232000D901A01BB10BAC9DC001AD9D900DBC9D12
:10233000900D1124E92FF59ED0011124AB2FBB275E
:102340007901EA1AFB0AEC9CD001ED9CB00DFC9CD3
:10235000B00D11245901A51AB108A09E7001A19ECB
:10236000F00CB09EF00C1124EF2CFF242E193F0925
:102370002C9D80012D9D100D3C9D100D1124212FB1
:102380006230710591F048F461157105E1F061303A
:102390007105B9F4242F4B2F16C06430710569F014
:1023A00040F06630710579F00CC0242F492FE12FE1
:1023B0000AC0492FEF2F2B2F06C0292FE42F412FC2
:1023C00002C0292FEB2F49832883EA83DF91CF9125
:1023D0001F910F91FF90EF90DF90CF90BF90AF9043
:1023E0000895AF92BF92CF92DF92EF92FF920F9338
:1023F0001F93CF93DF937C015B016A018091C3013E
:102400008A3018F001E010E002C00AE010E0C1E0FC
:10241000D0E0F894B501C701F601099578948111CF
:1024200015C021960C171D0794F0CC9F9001CD9FED
:10243000300D300D112480E090E045E34A95F1F72E
:102440000000019682179307C1F7E3CF81E0DF9187
:10245000CF911F910F91FF90EF90DF90CF90BF90A1
:10246000AF900895EDE0F2E080818E7F80830E943E
:102470009C20EFE8F2E08281816082832FEF80E789
:1024800092E0215080409040E1F700C000000C94A1
:10249000BE2090910D0290FF3BC09170811102C04F
:1024A000926006C0883010F09E6002C0880F982BA2
:1024B00090930D0280919102816080939102662336
:1024C00051F060910D0270910E0280910F02909177
:1024D00010020E94311160910D02669570E041E09A
:1024E00050E086E391E00E941025892B19F00E94AC
:1024F0009C2002C00E94A32081E080938C0220E0F7
:102500004091100260910F0280910E020C94F9210B
:10251000089580910D028695815009F487E061E06D
:102520000C94491280910D0286958F5F883008F0D7
:1025300081E061E00C944912CF93DF93CDB7DEB711
:102540002A970FB6F894DEBF0FBECDBF84B7877F42
:1025500084BF0FB6F894A89580916000886180933D
:102560006000109260000FBE90E080E80FB6F89413
:1025700080936100909361000FBE85B7806885BF2E
:1025800085B7806885BF83EE9AE090938B01809336
:102590008A010E9484180E94A3188091E20084603E
:1025A0008093E2007894809103028823A1F0109137
:1025B000E9001F709091EC00892F817090FD80E8F8
:1025C000182B1092E9008091E80083FD0E9473159A
:1025D0001F701093E90082E084BD93E095BD9AEFEF
:1025E00097BD80936E001092C4011092C5011092A5
:1025F000C6011092C7010E943A0C80932801809175
:102600002801882321F0109237018FE103C08FE168
:1026100080933701809338010E943A0C81110E9407
:10262000CC228091280180912801811102C095E07F
:1026300001C090E09093D90185E0891B8093D80177
:102640000FE611E0D8018D918D018F3F11F00E94AE
:10265000D20CB1E004371B07A9F709E711E041E804
:10266000E42E41E0F42EF80181918F018F3F11F0AB
:102670000E94D20CE016F106B1F78AE0EDEDF1E030
:10268000DF01282F1D922A95E9F7EEECF1E0DF013A
:102690001D928A95E9F780E090E00E94A824893E87
:1026A0009E4F11F00E948C0E82E090E00E949A24CE
:1026B0008093EB010E947B0E9093CD018093CC011F
:1026C00083E090E00E949A24682F70E080E090E020
:1026D0000E94B71D6091C8017091C9018091CA0123
:1026E0009091CB010E9460040E943A0C811102C0BB
:1026F0000E94CF228091DA0181113BC080E090E0FE
:102700000E94A824893E9E4F21F00E948C0E0E94B8
:10271000431188E090E00E94A22460930D02709320
:102720000E0280930F0290931002809191028360B9
:10273000809391026E7F71F40E94431188E090E0D3
:102740000E94A22460930D0270930E0280930F02E8
:10275000909310020E94D5100E949C2080910D023F
:1027600080FF04C060E086950E94491281E080935A
:10277000DA018FE391E09093880280938702809141
:102780000D02816080930D0261E086950E944912DE
:1027900061E085E00E94491289E291E09093530341
:1027A0008093520328E1E22EF12C30E4B32EAA24C8
:1027B000A3947724739480910302853009F062C05A
:1027C00000E112E180910302853009F046C080915A
:1027D0000302843009F430C00E949C208091DC0107
:1027E000811109C07092DC0180910D02817080938B
:1027F000DB010E943212109256030FB6F894A8958E
:10280000E09260000FBEB092600083B7817F846069
:1028100083BF83B7816083BF7894889583B78E7FA9
:1028200083BF0FB6F894A89580916000886180936B
:102830006000109260000FBE80910202882309F4AC
:10284000C1CF0E94040FEDEDF1E081918111E3C051
:1028500021E0E73EF207C9F7B5CF0E94C11D0E94F3
:10286000FB1F1092DC018091DB01882349F08091ED
:102870000D02816080930D0260E086950E944912EE
:102880000E94A3200E94040F81110E94741FADEDCD
:10289000B1E0ECEEF1E000E010E0802E9D9081913F
:1028A000892549F1C12CDD24D394982F9D21F1F085
:1028B0000E943A0C882399F0C9828A829D2081E087
:1028C00009F480E08B830E94801F8160782F9D83B4
:1028D0008C8349815A816B818D810E94B803F801F4
:1028E000E451FE4F8081D826D0821AC0C394DD0CFB
:1028F00048E0C412DACF0F5F1F4F0A30110569F6A6
:102900008FEF8E838F8318860E94801F8160782FBF
:102910009A8789874E815F8168858A850E94B8037E
:1029200080919002882309F46AC080918F02E0911F
:102930000D02E695E81BE0938B02823061F4E69588
:10294000F0E0E95BFE4FE4910E2F10E098E9C92E0C
:1029500091E2D92E06C000ED17E084EDC82E8DE17E
:10296000D82E80918C02882361F010928C020E94F4
:10297000E90C90938A028093890210928E02109241
:102980008D020E94E90CE0918902F0918A029C017B
:102990002E1B3F0B2F3F3F4790F52091E90122234B
:1029A000B1F01092E9012091E7013091E801821B1A
:1029B000930B8F3F9F4758F4205D3A483093E801CE
:1029C0002093E7018091910288608093910280902A
:1029D0008D0290908E020E0F1F1F10938A0200939B
:1029E000890289E892E0F601099580918D02909123
:1029F0008E02892B21F4892811F0A092E9010E940E
:102A0000FB1F9091EA01891709F4D5CE0E94FB1FA4
:102A10008093EA01D0CE09BD19BD09B400FEFDCFF7
:102A20008091D8008F7D8093D8008091E0008260F3
:102A30008093E0008091E00081FDFCCF0E94C11DE9
:102A4000C1CE80910D0280FF07C0869582588F7796
:102A5000853010F40C94921261E082E00C944912DB
:102A6000FC01AC014B5F5F4F8FEF91E32191822717
:102A700028E030E087FF03C0880F892701C0880F56
:102A800021503109B9F7E417F50781F70895EF925E
:102A9000FF920F931F93CF93DF937C018B010E94D2
:102AA0005A1E811119C0E70101151105A1F080918D
:102AB000E80085FD0AC08091E8008E778093E800E9
:102AC0000E945A1E882381F307C089918093F100E8
:102AD00001501109E9CF80E0DF91CF911F910F9153
:102AE000FF90EF9008951F93CF93DF93CDB7DEB79C
:102AF000AA970FB6F894DEBF0FBECDBFE5E0F2E0B7
:102B00008DE092E02091F10021938E179F07D1F77D
:102B100080910602833009F461C030F4813071F095
:102B2000823009F49BC0B2C08A3009F487C08B3070
:102B300009F46CC0893009F0A9C020C08091050259
:102B4000813A09F0A3C08091E800877F8093E80074
:102B50008091090290910A02892B21F468E089EFA3
:102B600091E003C060E080E090E070E00E94E11E30
:102B70008091E8008B778093E80088C080910502FF
:102B8000813209F083C08091090290910A02029774
:102B900008F07CC08091E800877F8093E8008091F6
:102BA000E80082FD05C0809103028111F8CF6EC05C
:102BB0002091F3008091F20090E0922B029731F483
:102BC0008091F100813011F0863021F48091F10084
:102BD0008093F8018091E8008B7754C080910502C2
:102BE000813A09F053C08091090290910A02892B21
:102BF00009F04CC08091E800877F8093E8008091C5
:102C0000E80080FFFCCF8091350137C0809105023C
:102C10008132E1F58091090290910A02892BB1F588
:102C20008091E800877F8093E8000E948D1E80914C
:102C30000702809335010E94C11D28C080910502C2
:102C4000813221F58091E800877F8093E8000E941F
:102C50008D1E809108028093F70118C080910502B3
:102C6000813AA1F48091E800877F8093E800809109
:102C7000E80080FFFCCF8091F7018093F100809104
:102C8000E8008E778093E8000E948D1E8091E80016
:102C900083FFCEC18091050290910602492F50E03A
:102CA0004A30510508F0C4C1FA01EE59FF4F0C94A7
:102CB0000A25803821F0823809F0BAC108C0809115
:102CC000010290910202992389F082600FC08091E5
:102CD00009028F70873008F0ABC18093E9008091C2
:102CE000EB0085FB882780F91092E9009091E800BD
:102CF000977F9093E8008093F1001092F10065C1F6
:102D0000282F2D7F09F094C1882319F0823061F0BB
:102D10008FC180910702813009F08AC1933009F098
:102D200080E0809302022EC08091070281112AC0A8
:102D3000809109028F702FEF280F263008F078C19C
:102D40008093E9002091EB0020FF1CC0933021F418
:102D50008091EB00806214C09091EB0090619093A1
:102D6000EB0021E030E0A90102C0440F551F8A9515
:102D7000E2F74093EA001092EA008091EB0088604D
:102D80008093EB001092E9008091E800877F20C1DA
:102D900081114EC1109107021F778091E300807866
:102DA000812B8093E3008091E800877F8093E80087
:102DB0000E948D1E8091E80080FFFCCF8091E3008F
:102DC00080688093E300111102C082E001C083E0BB
:102DD000809303022DC18058823008F029C1809170
:102DE0000702909108028C3D53E0950779F583E046
:102DF0008A838AE289834FB7F894DE01139620E034
:102E00003EE051E2E32FF0E050935700E49120FFC1
:102E100003C0E295EF703F5FEF708E2F90E0EA30D5
:102E200010F0C79601C0C0968D939D932F5F2431FB
:102E300049F74FBF8091E800877F8093E8006AE2FE
:102E400070E0CE0101960E94E11EAEC040910902E1
:102E500050910A02292F332723303105A9F068F455
:102E60002130310509F4F3C02230310509F0E0C00A
:102E70008BE390E0ECEBF2E044C02132310521F12C
:102E80002232310571F1D4C0992781309105A1F02A
:102E900058F0029709F0CCC0E9E0F3E0E4918E2FFE
:102EA00090E0E9E0F3E02AC0E1E3F3E0E4918E2F63
:102EB00090E0E1E3F3E022C0EBE1F3E0E4918E2F58
:102EC00090E0EBE1F3E01AC04115510509F4C4C0EC
:102ED0004130510509F0ACC089E090E0E7EEF2E046
:102EE00010C04115510509F4BCC04130510509F02D
:102EF0009FC082E390E0EAE4F2E003C0009709F4A7
:102F000097C02091E800277F2093E80020910B02D2
:102F100030910C028217930708F49C0140E02115C0
:102F2000310589F180910302882309F43DC0853081
:102F3000D9F18091E80083FD37C08091E80082FDDF
:102F40002FC08091E80080FFEACF4091F30080918C
:102F5000F20090E0942B2115310559F0883091054D
:102F600040F444914093F10031962150310901968B
:102F7000F2CF41E0089709F040E08091E8008E77B9
:102F80008093E800CCCF4111CDCF0AC080910302DD
:102F9000882351F0853041F08091E80083FD04C022
:102FA0008091E80082FFF2CF8091E8008B778093D8
:102FB000E8003EC08038E1F58091E800877F80938B
:102FC000E800809104028093F1008091E8008E7700
:102FD0008093E8000E948D1E2BC0811129C0809132
:102FE0000702909108029927029714F58091E80052
:102FF000877F8093E80010910702109304020E94DB
:103000008D1E111106C08091E30087FD02C081E092
:1030100001C084E08093030242E061EC81E00E9401
:10302000AC1E42E261EC82E00E94AC1E8091030281
:103030008091E80083FF1AC08091E800877F809329
:10304000E8008091EB0080628093EB000FC082E18A
:1030500090E0E7EFF2E055CF89E090E0EEECF2E0AF
:1030600050CF80E490E0ECE7F2E04BCFAA960FB6A9
:10307000F894DEBF0FBECDBFDF91CF911F910895B1
:103080001F920F920FB60F9211242F933F934F93DD
:103090005F936F937F938F939F93AF93BF93CF93E0
:1030A000DF93EF93FF93C091E900CF708091EC0024
:1030B000D82FD17080FDD0E81092E9008091F00007
:1030C000877F8093F00078940E9473151092E90036
:1030D0008091F00088608093F000CD2BCF70C0937A
:1030E000E900FF91EF91DF91CF91BF91AF919F9157
:1030F0008F917F916F915F914F913F912F910F90A1
:103100000FBE0F901F901895E8EDF0E080818E7F44
:1031100080831092E2001092DA001092E100A0EE9B
:10312000B0E08C9181608C9380818F77808319BC13
:10313000A7EDB0E08C918E7F8C9380818F7E808311
:103140001092F6010895CF92DF92EF92FF920F93C3
:103150001F93CF93DF93C8EDD0E088818F7E888363
:10316000E7EDF0E080818160808384E082BF81E0D0
:103170008093F60188818E7F888302EE10E0F8014B
:1031800010821092DA0081EEC82ED12CF601108246
:1031900088818F77888388818068888388818F7D04
:1031A000888319BC1092030210920402109202024A
:1031B0001092010290EEE92EF12CF70180818B7FB5
:1031C000808388818160888342E060E080E00E94A3
:1031D000AC1EF60180818E7F8083F8018081816042
:1031E0008083808188608083F70180818E7F8083E7
:1031F000888180618883DF91CF911F910F91FF902B
:10320000EF90DF90CF9008951F920F920FB60F921C
:1032100011242F933F934F935F936F937F938F93DB
:103220009F93AF93BF93EF93FF938091E10082FF51
:1032300009C08091E20082FF05C08091E1008B7F90
:103240008093E1008091DA0080FF2AC08091D8004D
:1032500080FF26C08091DA008E7F8093DA00809113
:10326000D90080FF18C080E189BD82E189BD09B421
:1032700000FEFDCF81E0809303028091F601811171
:103280000FC00E9484180E94A3188091E2008460FD
:103290008093E20005C019BC109203021092F6015F
:1032A0008091E10080FF17C08091E20080FF13C091
:1032B0008091E2008E7F8093E2008091E200806145
:1032C0008093E2008091D80080628093D80019BC7E
:1032D00085E0809303028091E10084FF30C08091FB
:1032E000E20084FF2CC080E189BD82E189BD09B480
:1032F00000FEFDCF8091D8008F7D8093D800809113
:10330000E1008F7E8093E1008091E2008F7E8093C8
:10331000E2008091E20081608093E20080910402EB
:10332000882311F084E007C08091E30087FD02C08C
:1033300081E001C083E080930302809103028091C9
:10334000E10083FF27C08091E20083FF23C08091CA
:10335000E100877F8093E10082E080930302109276
:1033600004028091E1008E7F8093E1008091E20071
:103370008E7F8093E2008091E20080618093E20082
:1033800042E060E080E00E94AC1E8091F000886026
:103390008093F000FF91EF91BF91AF919F918F913A
:1033A0007F916F915F914F913F912F910F900FBE41
:1033B0000F901F90189590918E0180918602892B15
:1033C00020918502982F922B9093120280918F0169
:1033D000882389F0892B80931202E4E1F2E097E0E0
:1033E00080E0915029F021912223D9F38F5FF9CF0A
:1033F00081110E94F70EE0915203F0915303309730
:1034000031F00280F381E02D82E192E00994089589
:1034100080E090E00E94E51F80E090E00E94CF1FD6
:1034200010928602109285020C94DB19809183021F
:1034300090915202891719F08F5F8770FBCF089522
:103440000F931F93CF93DF938091510282958F70DA
:1034500009F05DC080914E02882309F458C0809124
:1034600083021091520260914C0270914D02C09102
:103470004F02D091500291E06F3F09F090E0292F68
:1034800006E0811709F443C0209721F07F3F21F027
:1034900030E003C031E001C0322F90E030FD34C095
:1034A000089FF001099FF00D1124DF01AD5ABD4FB7
:1034B00011963C911197371327C03C91361324C0C5
:1034C00012963C91129731111FC013964D915C9149
:1034D00014974C1B5D0B483C5105B0F48091510290
:1034E0008F70806180935102E85AFD4F80818F7008
:1034F000806180838CE492E00E94CE04DF91CF91C2
:103500001F910F910C94161A01968770BACFDF9114
:10351000CF911F910F9108958F929F92AF92BF927A
:10352000DF92EF92FF920F931F93CF93DF938090E0
:10353000C8019090C901A090CA01B090CB01409100
:103540009001509191016091920170919301842AB0
:10355000952AA62AB72ACFE1D0E02AE0D22EE92E7A
:10356000F12C082F10E0D501C4010C2E04C0B69533
:10357000A795979587950A94D2F780FD04C0219767
:1035800090F780E019C0DC9EF001DD9EF00D112463
:10359000EE0DFF1D83E0EE0FFF1F8A95E1F7E00FB0
:1035A000F11FEE0FFF1FEB5CFC4F859194910E9481
:1035B000F20C019721F38C2FDF91CF911F910F9186
:1035C000FF90EF90DF90BF90AF909F908F90089505
:1035D000CF93DF93D82FC92F0E948C1AEC2FF0E0E5
:1035E0009AE0899FE00DF11D112483E0EE0FFF1F8B
:1035F0008A95E1F7ED0FF11DEE0FFF1FEB5CFC4F1D
:10360000859194910E94F20CDF91CF910895FC0175
:10361000808191810E94E81A292F2F70E92FE2956D
:10362000EF704E2F50E0FA013297EE30F105B8F40A
:10363000E459FF4F0C940A25803F99F018F4883E16
:1036400070F40FC0843F59F40CC0883E50F0813FA5
:1036500031F407C0822F869586958695089580E07F
:10366000089581E008959F92AF92BF92CF92DF922A
:10367000EF92FF920F931F93CF93DF93CDB7DEB7F7
:1036800061970FB6F894DEBF0FBECDBF8C0185E009
:10369000F801DE011D9601900D928A95E1F7F8017F
:1036A000E28090914C0260914D0240914F02509106
:1036B00050024115510531F06F3F31F481E09F3FD9
:1036C00019F403C081E001C080E0F82FF1709F2E53
:1036D00080FD1AC1F80130812181C380D4808CE43F
:1036E000A82E82E0B82EF0904E02F601E41BF50BF6
:1036F000FF2009F4C6C080915102E83CF10508F0B2
:1037000091C0482F407F09F050C0621311C093133D
:103710000FC0FE2CE1100CC08F70806180935102AD
:10372000C5010E94CE0480915102F801858329C110
:10373000CD2831F02F3F31F481E03F3F19F403C031
:1037400081E001C080E080FD03C081E08E2502C0E1
:1037500080E090E0F82FF170FF2E80FF1CC0809178
:1037600083024091520256E0841709F4E8C090E0C9
:10377000589FF001599FF00D1124ED5AFD4F6181C2
:10378000261306C06081631303C06281E61203C082
:1037900001968770E9CFFE2CEE2009F4F2C08091EB
:1037A000510281608093510249C0621306C0931395
:1037B00004C0E11002C0F80186C0C8010E94071BC6
:1037C000882351F1EE2041F120915102822F829500
:1037D0008F7090E0029774F080914C0290914D02AE
:1037E00098878F831986DB86CA862C87CE01079639
:1037F0000E94CE0486E0F801ACE4B2E001900D92A4
:103800008A95E1F70E94201A0AC06217C9F0C80120
:103810000E94071B81111EC0C8010E94CE04FF2414
:10382000F394AFC0482F407F81F78CE492E00E9470
:10383000CE0486E0F50111928A95E9F7F12CA1C03A
:103840009313E5CFE110E3CFF8018583C8010E940F
:10385000CE0454C0EE2001F320915102822F8295B4
:103860008F7090E0029734F280914C0290914D025B
:103870009A8389831B82DD82CC822E83CE010196BE
:10388000B7CFE83CF105D0F5FE2CEE2029F262130B
:1038900027C0931325C02091510220FD18C0822F0C
:1038A00082958F70482F50E04115510581F0F80145
:1038B00025834F30510541F08F5F982F9295907F6F
:1038C000822F8F70892B8583C8010E94CE0486E0E9
:1038D000F801ACE4B2E001900D928A95E1F751C095
:1038E000C8010E94071B811185CF80915102816020
:1038F00080935102C8010E94CE0443C086E0F501C6
:1039000011928A95E9F73DC0EE2009F485CFC801F0
:103910000E94071BF82E882309F47ECF86E0F80169
:10392000ACE4B2E001900D928A95E1F780914C02EF
:1039300090914D020E94E81A0E94201A22C03D87F1
:103940002E878D859E850E94E81A292F22952F703B
:10395000223028F49F7039F0811105C00BC024304B
:1039600028F49F7049F4805E883020F0C8010E94DE
:10397000CE049F2CF92C05C0F8019581907F99F712
:10398000F9CF8F2D61960FB6F894DEBF0FBECDBF75
:10399000DF91CF911F910F91FF90EF90DF90CF902B
:1039A000BF90AF909F90089528E0929F800D1124C2
:1039B000682F669566956695982F977085E0689F45
:1039C000B001112440E050E080E0FB01E40FF51F5E
:1039D000E65EFD4F208130E0092E02C03695279526
:1039E0000A94E2F721703327042E01C0220F0A94B3
:1039F000EAF7822B4F5F5F4F4530510531F708954D
:103A000028E0929F800D1124E82FE695E695E69533
:103A1000877051E001C0550F8A95EAF785E0E89F6D
:103A2000F0011124E65EFD4F20E030E070E04081BF
:103A3000CB01022E02C0969587950A94E2F7817019
:103A4000819584278523842781932F5F3F4F2530DD
:103A5000310569F708950E9460046093C80170936E
:103A6000C9018093CA019093CB010C94081A0F935B
:103A70001F9341E050E060E070E004C0440F551F28
:103A8000661F771F8A95D2F740955095609570957F
:103A90008091C8019091C901A091CA01B091CB0158
:103AA0008A019B01082319232A233B23C901B8015A
:103AB0001F910F910C942B1D2091840280958223DD
:103AC00080938402982F977099F430E0482F082E45
:103AD000000C550B2417350759F09091CD0192FD3C
:103AE00007C08595859585950E94371D10928402A3
:103AF0000895CF93C091CD01C2FB992790F99817F3
:103B000099F080FBC2F9C093CD016091CC0184E0B3
:103B100090E00E94AE246C2F82E290E00E94AE24DE
:103B200082E0CF910C945C1DCF9108950F931F9369
:103B300041E050E060E070E004C0440F551F661F94
:103B4000771F8A95D2F78091C8019091C901A09101
:103B5000CA01B091CB018A019B01082B192B2A2B9A
:103B60003B2BC901B8011F910F910C942B1D609341
:103B700090017093910180939201909393010C9422
:103B8000081A10928E0186E0E4E1F2E0DF011D9256
:103B90008A95E9F70C94081A882321F00E94FD0EFB
:103BA0000C94DB1908950895089508958091F80103
:103BB000089580935B0370935D0360935C03809131
:103BC0000302843001F582E08093E9008FEF909149
:103BD000E800815095FD06C095ED9A95F1F700003B
:103BE0008111F5CF8091E80085FF0DC040E050E0E5
:103BF00063E070E08BE593E00E9447158091E80058
:103C00008E778093E8000895BC0184E00C94D91D60
:103C1000BC0183E00C94D91DCF93DF9321E0209366
:103C2000E9002FEF3091E800215035FD06C035ED59
:103C30003A95F1F700002111F5CF2091E80025FF1A
:103C400014C0EC0140E050E068E070E00E944715CD
:103C50008091E8008E778093E80088E0FE01A9EF6C
:103C6000B1E001900D928A95E1F7DF91CF9108952F
:103C700080911102882319F0815080931102609184
:103C80000D0270910E0280910F02909110020C941F
:103C9000311180911102833018F48F5F80931102EB
:103CA00060910D0270910E0280910F0290911002AE
:103CB0000C9431112091E4003091E50095E640919B
:103CC000EC00842F817040FF23C08091E80080FDCC
:103CD0001DC080910302882399F0853099F080916E
:103CE000EB0085FD11C04091E4005091E5002417E0
:103CF000350729F3915011F09A01E1CF84E008953E
:103D000082E0089583E0089581E0089580E00895B9
:103D10004091E80042FFDDCF08958091050287FFC2
:103D200011C08091E80082FD05C0809103028111DD
:103D3000F8CF11C08091E8008B770BC0809103020F
:103D4000882349F08091E80080FFF8CF8091E80057
:103D50008E778093E8000895982F973068F59093B8
:103D6000E900981739F07091EC002091ED00509126
:103D7000F00003C0242F762F50E021FD02C09F5F8A
:103D8000ECCF3091EB003E7F3093EB003091ED00B3
:103D90003D7F3093ED003091EB0031603093EB00CC
:103DA0007093EC002093ED005093F0002091EE0012
:103DB00027FDE5CF80E008958F708093E90081E0D2
:103DC000089520910B0230910C022617370748F016
:103DD0006115710539F42091E8002E772093E800F1
:103DE00001C0B901FC0120E06115710579F18091F4
:103DF00003028823F1F18530F1F18091E80083FD21
:103E00003CC08091E80082FD2EC08091E80080FFD8
:103E1000EBCF2091F3008091F20090E0922B61159E
:103E2000710551F08830910538F421912093F1000B
:103E3000615071090196F3CF21E0089709F020E065
:103E40008091E8008E778093E800CECF2111CFCF0C
:103E50000AC080910302882361F0853061F080916F
:103E6000E80083FD0AC08091E80082FFF2CF80E085
:103E7000089582E0089583E0089581E0089578949C
:103E80001F920F920FB60F9211248F939F93AF93AF
:103E9000BF938091570390915803A0915903B0911B
:103EA0005A030196A11DB11D8093570390935803A7
:103EB000A0935903B0935A03BF91AF919F918F91F3
:103EC0000F900FBE0F901F9018959C014FB7F8945C
:103ED0008091570390915803A0915903B0915A03D0
:103EE0004FBF821B930B08952FB7F894609157032F
:103EF000709158038091590390915A032FBF0895F0
:103F00002FB7F8948091570390915803A0915903CB
:103F1000B0915A032FBF08951F920F920FB60F92C0
:103F200011248F939F93AF93BF9380915603811178
:103F300013C08091570390915803A0915903B091F9
:103F40005A034196A11DB11D8093570390935803C6
:103F5000A0935903B0935A03BF91AF919F918F9152
:103F60000F900FBE0F901F9018959C01FC01329688
:103F70009FEF80E04191461789F09F3F19F441116E
:103F800001C0982F8F5F8630A9F79F3F39F0F90164
:103F9000E90FF11D97FDFA95628308950895209128
:103FA0005403309155032817390771F09093550346
:103FB00080935403E0915203F0915303309721F022
:103FC0000084F185E02D09940895209150033091EB
:103FD00051032817390771F09093510380935003D0
:103FE000E0915203F0915303309721F00680F7815E
:103FF000E02D099408950E943A0C882351F0E09135
:104000005203F0915303309721F00190F081E02D9D
:10401000099480E00895EF92FF920F93CF93DF937E
:10402000C42FD22FFC0182818823D1F040934F030B
:104030000E94801F90934E0380934D0380E28C0F6B
:10404000883008F06DC0C77081E001C0880FCA9544
:10405000EAF7DF91CF910F91FF90EF900C9424033A
:1040600080914F0348134BC080914D0390914E03B4
:104070000E94651F883C910508F041C0CD17C9F02A
:1040800080E28C0F883040F4C77081E001C0880F57
:10409000CA95EAF70E94CC1D80E28D0F883048F463
:1040A00081E09D2F977001C0880F9A95EAF70E94D2
:1040B0002403093319F0E12CF12C03C080E5E82E2C
:1040C000F12C802F0E945F03E114F10451F08FE97D
:1040D0009FE00197F1F700C0000091E0E91AF108B4
:1040E000F3CF802F0E942E0380E28D0F8830C0F422
:1040F000D77081E001C0880FDA95EAF70AC080E244
:104100008C0F883068F4C77081E001C0880FCA95B1
:10411000EAF7DF91CF910F91FF90EF900C94CC1DB7
:10412000DF91CF910F91FF90EF900895882311F0C8
:10413000FA0101C0FB010994EFE8F2E011828281EB
:1041400084608283089560910D02669570E041E07D
:1041500050E086E391E00E941025892B19F481E05C
:10416000809390020E94E90C90938A0280938902C6
:104170008091910284608093910208955F926F9282
:104180007F928F929F92AF92BF92CF92DF92EF92E7
:10419000FF920F931F93CF93DF9300D000D01F9215
:1041A000CDB7DEB75090380180910D02982F9170F5
:1041B00080FF08C08090870290908802811491044B
:1041C000A9F42CC08091390120913A01821790F70F
:1041D000E82FF0E0AF01440F551FE40FF51FED5637
:1041E000FD4F1182108212828F5FF0CF9923B1F0C0
:1041F000A12CB12C66246394712C20919202C301EE
:104200000A2C01C0880F0A94EAF7822309F454C0EB
:10421000F401C590D490C114D104B9F5E0913701EF
:1042200023E0E29FF0011124ED56FD4F549A8BB12B
:104230008F7E9BB190612FB7F894AF0133E0539E0E
:10424000400D511D112444C010E08A819801280FAF
:10425000311DC9012F33310514F08EE390E07C014C
:10426000EE0CFF1C8E0D9F1D9C012D563D4F7901BC
:10427000C801880F991F080F191F0D561D4F0E15E5
:104280001F0570F035E0C30ED11C45E050E0B601CB
:10429000CE0101960E94912409810F3FA9F60CC01E
:1042A0004D814B3508F04AE598016C818B810E9465
:1042B0005B110D5F1F4FE3CF82E0880E911C9FEFD3
:1042C000A91AB90A28E0A216B10409F096CFA6CF20
:1042D0004E175F0789F0319168E09BB9000000C07C
:1042E00037FF8BB9330F000000C000C000C08BB98E
:1042F00000C06A9591F7ECCF2FBF8FE594E001974E
:10430000F1F700C000000F900F900F900F900F90EA
:10431000DF91CF911F910F91FF90EF90DF90CF90A1
:10432000BF90AF909F908F907F906F905F90089517
:10433000FF920F931F93CF93DF93EC01F12C0FEFBC
:1043400010E060913B01F61608F5809139012F2DA0
:1043500030E0280F311DC901880F991F280F391F20
:104360002D563D4F409110024B3508F04AE570E064
:10437000C8010E94F624962F8C8160910F02F99E4D
:10438000800D11240E945B11F394DBCF0E94BE20AC
:104390009A818C8190FF02C08F5F01C081508C8315
:1043A000DF91CF911F910F91FF90089521E030E0B0
:1043B000A90102C0440F551F8A95E2F7CA01209156
:1043C0009202662311F0822B02C080958223809393
:1043D000920280919102806180939102809190027B
:1043E000811106C080910D0260E086950C944912FF
:1043F0000895EF92FF920F931F93CF93DF9300D016
:104400001F92CDB7DEB7082FF62E142FE22E809123
:104410000D0280FF5AC0E82FE695F0E0EF57FE4FFF
:10442000908190938F028E7F823041F54B3508F05A
:104430004AE59E012F5F3F4F6F2D802F0E945B1139
:1044400080910D0280FF1EC02B8139814A818091AD
:10445000390190913A01891770F4E82FF0E0BF011B
:10446000660F771FE60FF71FED56FD4F4183308330
:1044700022838F5FF0CF0E94BE2004C0923011F4DF
:1044800000910E0280910E02081308C080910F0265
:10449000F81204C080911002181729F0809191023F
:1044A00082608093910200930E02F0920F021093AB
:1044B0001002EE2051F060910D0270910E02809179
:1044C0000F02909110020E9431110F900F900F90E7
:1044D000DF91CF911F910F91FF90EF9008958EE1A2
:1044E0004A9B02C08150E1F74A9BFECF08955A983B
:1044F00080E28A95F1F75A9A0895FC012AE02A95FC
:10450000F1F728E090E080E031E040E14A95F1F7F2
:10451000880F4A9B02C08160932700C0000040E1E1
:104520004A95F1F7215089F720E12A95F1F729B151
:1045300000C0000030E13A95F1F722FB222720F974
:1045400092272081920F90830895EF92FF920F930C
:104550001F93CF93DF931F92CDB7DEB719828C01E3
:104560007C01E60EF11C0E151F0551F00E946F2212
:10457000CE0101960E947D22F80181938F01F3CF35
:1045800081E09981911180E00F90DF91CF911F918F
:104590000F91FF90EF900895529A5A9A0895529869
:1045A0005A9AEA9AE9E6F0E080818F7C8083089548
:1045B000615091E001C0990F6A95EAF720E031E07F
:1045C000992361F0492F482319F05A9A232701C0F3
:1045D0005A9840E24A95F1F79695F2CF222311F0CE
:1045E0005A9A01C05A9880E28A95F1F75A9808952C
:1045F000FF920F931F93CF93DF93EC018C01060F73
:10460000111DC017D10741F0F9900E94772268E090
:104610008F2D0E94D822F5CFDF91CF911F910F915E
:10462000FF9008951F920F920FB60F921124EF92F0
:10463000FF920F931F932F933F934F935F936F932B
:104640007F938F939F93AF93BF93EF93FF93CF93FA
:10465000DF931F92CDB7DEB719820E946F22CE0181
:1046600001960E947D22A82FA695A695A6959A2F21
:10467000969595702A2F2570920F292F2370969565
:104680009695920F877089137CC08981811179C0BA
:10469000A53008F076C080E18A95F1F75A9A529ACF
:1046A000B2E0BA95F1F700C05A98EA2EF12CEAE090
:1046B000AE9FD0011124A050BF4F1896ED91FC91F0
:1046C00019973097B1F060916D0170916E01169657
:1046D0002D913C911797260F371F13968D919C9122
:1046E0001497680F791F15964C91159712968C9117
:1046F00009958AE08E9DF0018F9DF00D1124E05008
:10470000FF4F6581662351F080916D0190916E019C
:1047100026813781820F931F0E94F8220E94772200
:10472000F0E1FA95F1F75A9852985A9A80E18A95F1
:10473000F1F78AE08E9D80018F9D100D11240050AD
:104740001F4FD80112966C911297662399F08091B1
:104750006D0190916E0113962D913C911497820FEB
:10476000931F0E94A522D801ED91FC91811105C0F3
:1047700082E004C0D801ED91FC9188E080830E9422
:104780006F220F90DF91CF91FF91EF91BF91AF9189
:104790009F918F917F916F915F914F913F912F9159
:1047A0001F910F91FF90EF900F900FBE0F901F90F1
:1047B00018950F931F93CF93DF93853091050CF0DD
:1047C000A9C02AE0289FF001299FF00D1124E05094
:1047D000FF4F20813181232B09F49CC0EC01F89418
:1047E000529A5A9885E08A95F1F700008C2F8695A9
:1047F00085709C2F9570890F982F9370869586955C
:104800008E0123E0000F111F2A95E1F7890F082B75
:104810000E947722A4E0AA95F1F700C068E0802FFB
:104820000E94D822B0E1BA95F1F752985A9A4A9963
:1048300002C000C0FCCF87E090E04A9B17C0019700
:1048400099F4529A5A9A8AE08C9FF0018D9FF00D4C
:104850001124E050FF4F0190F081E02D81E0808332
:10486000789481E090E058C000C0E7CF8AE08C9F48
:1048700080018D9F100D112400501F4FF80165819C
:104880006623B9F080916D0190916E012681378188
:10489000820F931F0E94A52281110BC0529A5A9A2F
:1048A000D801ED91FC9182E08083789482E090E0E1
:1048B00033C00E946F22B0E2BA95F1F75A98529A2B
:1048C000E0E1EA95F1F78AE08C9FF0018D9FF00D11
:1048D0001124E050FF4F6281662351F080916D01F9
:1048E00090916E0123813481820F931F0E94F822E0
:1048F0000E9477228AE08C9FF0018D9FF00D112499
:10490000E050FF4F0190F081E02D1082789480E01C
:1049100090E002C084E090E0DF91CF911F910F9171
:104920000895FB01DC0102C005900D9241505040FA
:10493000D8F70895F999FECF92BD81BDF89A9927CD
:1049400080B50895A6E1B0E044E050E00C94D42492
:10495000A8E1B0E042E050E00C94D424262FF9996D
:10496000FECF92BD81BDF89A019700B4021639F0CE
:104970001FBA20BD0FB6F894FA9AF99A0FBE08959F
:104980000396272F0E94AF240E94AE24252F0E9459
:10499000AF24242F0C94AF240196272F0E94AF241C
:1049A0000C94AE24DC01CB01FC01F999FECF06C0CA
:1049B000F2BDE1BDF89A319600B40D9241505040DD
:1049C000B8F70895AA1BBB1B51E107C0AA1FBB1F64
:1049D000A617B70710F0A61BB70B881F991F5A958B
:1049E000A9F780959095BC01CD01089597FB072EFE
:1049F00016F4009407D077FD09D00E94E22407FC4A
:104A000005D03EF4909581959F4F089570956195DE
:104A10007F4F0895EE0FFF1F0590F491E02D09944C
:104A2000FC014150504030F001900616D1F731970B
:104A3000CF010895882799270895FB01DC0104C060
:104A40008D910190801921F441505040C8F7881B86
:104A5000990B0895FB01DC0102C001900D924150B9
:0A4A60005040D8F70895F894FFCFF6
:104A6A008D0100000001000000008D01000000051A
:104A7A00010000008D0104060000000000008D0105
:104A8A00090A00000000000001D61D0C1ED51D08F1
:104A9A001E041ED31D0101003E003E3E818283E2B8
:104AAA0000E900EA00B500B600B700CD008301CCEA
:104ABA00008A01920194012102230224022502267E
:104ACA000227022A02B300B4006F007000AC01662C
:104ADA0097C634350000000000F4F5F6F73133329A
:0A4AEA00360001020202020202007F
:00000001FF
